{
  "_format": "hh-sol-artifact-1",
  "contractName": "Marketplace",
  "sourceName": "contracts/Marketplace.sol",
  "abi": [
    {
      "anonymous": false,
      "inputs": [
        {
          "indexed": false,
          "internalType": "string",
          "name": "name",
          "type": "string"
        },
        {
          "indexed": false,
          "internalType": "address",
          "name": "_seller",
          "type": "address"
        },
        {
          "indexed": false,
          "internalType": "uint256",
          "name": "_price",
          "type": "uint256"
        }
      ],
      "name": "newProduct",
      "type": "event"
    },
    {
      "inputs": [
        {
          "internalType": "uint256",
          "name": "_index",
          "type": "uint256"
        }
      ],
      "name": "buyProduct",
      "outputs": [],
      "stateMutability": "payable",
      "type": "function"
    },
    {
      "inputs": [],
      "name": "getProductsLength",
      "outputs": [
        {
          "internalType": "uint256",
          "name": "",
          "type": "uint256"
        }
      ],
      "stateMutability": "view",
      "type": "function"
    },
    {
      "inputs": [
        {
          "internalType": "uint256",
          "name": "_index",
          "type": "uint256"
        }
      ],
      "name": "readProduct",
      "outputs": [
        {
          "internalType": "address payable",
          "name": "",
          "type": "address"
        },
        {
          "internalType": "string",
          "name": "",
          "type": "string"
        },
        {
          "internalType": "string",
          "name": "",
          "type": "string"
        },
        {
          "internalType": "string",
          "name": "",
          "type": "string"
        },
        {
          "internalType": "string",
          "name": "",
          "type": "string"
        },
        {
          "internalType": "uint256",
          "name": "",
          "type": "uint256"
        },
        {
          "internalType": "uint256",
          "name": "",
          "type": "uint256"
        }
      ],
      "stateMutability": "view",
      "type": "function"
    },
    {
      "inputs": [
        {
          "internalType": "string",
          "name": "_name",
          "type": "string"
        },
        {
          "internalType": "string",
          "name": "_image",
          "type": "string"
        },
        {
          "internalType": "string",
          "name": "_description",
          "type": "string"
        },
        {
          "internalType": "string",
          "name": "_location",
          "type": "string"
        },
        {
          "internalType": "uint256",
          "name": "_price",
          "type": "uint256"
        }
      ],
      "name": "writeProduct",
      "outputs": [],
      "stateMutability": "nonpayable",
      "type": "function"
    }
  ],
  "bytecode": "0x608060405273874069fa1eb16d44d622f2e0ca25eea172369bc16000806101000a81548173ffffffffffffffffffffffffffffffffffffffff021916908373ffffffffffffffffffffffffffffffffffffffff160217905550600060015534801561006957600080fd5b50610e54806100796000396000f3fe60806040526004361061003f5760003560e01c80631155dfe5146100445780638642269e1461006f5780638da8f27b1461008b578063fffa7e2e146100b4575b600080fd5b34801561005057600080fd5b506100596100f7565b6040516100669190610b1e565b60405180910390f35b6100896004803603810190610084919061093d565b610101565b005b34801561009757600080fd5b506100b260048036038101906100ad9190610866565b61026a565b005b3480156100c057600080fd5b506100db60048036038101906100d6919061093d565b6103f7565b6040516100ee97969594939291906109fe565b60405180910390f35b6000600154905090565b60008054906101000a900473ffffffffffffffffffffffffffffffffffffffff1673ffffffffffffffffffffffffffffffffffffffff166323b872dd336002600085815260200190815260200160002060000160009054906101000a900473ffffffffffffffffffffffffffffffffffffffff1660026000868152602001908152602001600020600501546040518463ffffffff1660e01b81526004016101aa93929190610a89565b602060405180830381600087803b1580156101c457600080fd5b505af11580156101d8573d6000803e3d6000fd5b505050506040513d601f19601f820116820180604052508101906101fc919061083d565b61023b576040517f08c379a000000000000000000000000000000000000000000000000000000000815260040161023290610afe565b60405180910390fd5b60026000828152602001908152602001600020600601600081548092919061026290610ce0565b919050555050565b60006040518060e001604052803373ffffffffffffffffffffffffffffffffffffffff1681526020018781526020018681526020018581526020018481526020018381526020018281525060026000600154815260200190815260200160002060008201518160000160006101000a81548173ffffffffffffffffffffffffffffffffffffffff021916908373ffffffffffffffffffffffffffffffffffffffff160217905550602082015181600101908051906020019061032d929190610708565b50604082015181600201908051906020019061034a929190610708565b506060820151816003019080519060200190610367929190610708565b506080820151816004019080519060200190610384929190610708565b5060a0820151816005015560c08201518160060155905050600160008154809291906103af90610ce0565b91905055507f57088cf1e552e14f55fb2561028b9fbd536d04cae3a2998435fd18b128d4e6918633846040516103e793929190610ac0565b60405180910390a1505050505050565b60006060806060806000806002600089815260200190815260200160002060000160009054906101000a900473ffffffffffffffffffffffffffffffffffffffff16600260008a8152602001908152602001600020600101600260008b8152602001908152602001600020600201600260008c8152602001908152602001600020600301600260008d8152602001908152602001600020600401600260008e815260200190815260200160002060050154600260008f8152602001908152602001600020600601548580546104cb90610c7d565b80601f01602080910402602001604051908101604052809291908181526020018280546104f790610c7d565b80156105445780601f1061051957610100808354040283529160200191610544565b820191906000526020600020905b81548152906001019060200180831161052757829003601f168201915b5050505050955084805461055790610c7d565b80601f016020809104026020016040519081016040528092919081815260200182805461058390610c7d565b80156105d05780601f106105a5576101008083540402835291602001916105d0565b820191906000526020600020905b8154815290600101906020018083116105b357829003601f168201915b505050505094508380546105e390610c7d565b80601f016020809104026020016040519081016040528092919081815260200182805461060f90610c7d565b801561065c5780601f106106315761010080835404028352916020019161065c565b820191906000526020600020905b81548152906001019060200180831161063f57829003601f168201915b5050505050935082805461066f90610c7d565b80601f016020809104026020016040519081016040528092919081815260200182805461069b90610c7d565b80156106e85780601f106106bd576101008083540402835291602001916106e8565b820191906000526020600020905b8154815290600101906020018083116106cb57829003601f168201915b505050505092509650965096509650965096509650919395979092949650565b82805461071490610c7d565b90600052602060002090601f016020900481019282610736576000855561077d565b82601f1061074f57805160ff191683800117855561077d565b8280016001018555821561077d579182015b8281111561077c578251825591602001919060010190610761565b5b50905061078a919061078e565b5090565b5b808211156107a757600081600090555060010161078f565b5090565b60006107be6107b984610b5e565b610b39565b9050828152602081018484840111156107d657600080fd5b6107e1848285610c3b565b509392505050565b6000815190506107f881610df0565b92915050565b600082601f83011261080f57600080fd5b813561081f8482602086016107ab565b91505092915050565b60008135905061083781610e07565b92915050565b60006020828403121561084f57600080fd5b600061085d848285016107e9565b91505092915050565b600080600080600060a0868803121561087e57600080fd5b600086013567ffffffffffffffff81111561089857600080fd5b6108a4888289016107fe565b955050602086013567ffffffffffffffff8111156108c157600080fd5b6108cd888289016107fe565b945050604086013567ffffffffffffffff8111156108ea57600080fd5b6108f6888289016107fe565b935050606086013567ffffffffffffffff81111561091357600080fd5b61091f888289016107fe565b925050608061093088828901610828565b9150509295509295909350565b60006020828403121561094f57600080fd5b600061095d84828501610828565b91505092915050565b61096f81610c05565b82525050565b61097e81610bbd565b82525050565b61098d81610bab565b82525050565b600061099e82610b8f565b6109a88185610b9a565b93506109b8818560208601610c4a565b6109c181610db6565b840191505092915050565b60006109d9600f83610b9a565b91506109e482610dc7565b602082019050919050565b6109f881610bfb565b82525050565b600060e082019050610a13600083018a610975565b8181036020830152610a258189610993565b90508181036040830152610a398188610993565b90508181036060830152610a4d8187610993565b90508181036080830152610a618186610993565b9050610a7060a08301856109ef565b610a7d60c08301846109ef565b98975050505050505050565b6000606082019050610a9e6000830186610984565b610aab6020830185610966565b610ab860408301846109ef565b949350505050565b60006060820190508181036000830152610ada8186610993565b9050610ae96020830185610984565b610af660408301846109ef565b949350505050565b60006020820190508181036000830152610b17816109cc565b9050919050565b6000602082019050610b3360008301846109ef565b92915050565b6000610b43610b54565b9050610b4f8282610caf565b919050565b6000604051905090565b600067ffffffffffffffff821115610b7957610b78610d87565b5b610b8282610db6565b9050602081019050919050565b600081519050919050565b600082825260208201905092915050565b6000610bb682610bdb565b9050919050565b6000610bc882610bdb565b9050919050565b60008115159050919050565b600073ffffffffffffffffffffffffffffffffffffffff82169050919050565b6000819050919050565b6000610c1082610c17565b9050919050565b6000610c2282610c29565b9050919050565b6000610c3482610bdb565b9050919050565b82818337600083830152505050565b60005b83811015610c68578082015181840152602081019050610c4d565b83811115610c77576000848401525b50505050565b60006002820490506001821680610c9557607f821691505b60208210811415610ca957610ca8610d58565b5b50919050565b610cb882610db6565b810181811067ffffffffffffffff82111715610cd757610cd6610d87565b5b80604052505050565b6000610ceb82610bfb565b91507fffffffffffffffffffffffffffffffffffffffffffffffffffffffffffffffff821415610d1e57610d1d610d29565b5b600182019050919050565b7f4e487b7100000000000000000000000000000000000000000000000000000000600052601160045260246000fd5b7f4e487b7100000000000000000000000000000000000000000000000000000000600052602260045260246000fd5b7f4e487b7100000000000000000000000000000000000000000000000000000000600052604160045260246000fd5b6000601f19601f8301169050919050565b7f5472616e73666572206661696c65640000000000000000000000000000000000600082015250565b610df981610bcf565b8114610e0457600080fd5b50565b610e1081610bfb565b8114610e1b57600080fd5b5056fea2646970667358221220488a1a8703bb56cd100c04ff794c3b34e62dff10a9db4d4bb7357aa00b267bdd64736f6c63430008040033",
  "linkReferences": {},
  "deployedLinkReferences": {}
}